:020000040800F2
:1000000000280020390C0008DD0B0008E30B000875
:10001000E90B0008EF0B0008F50B000800000000DA
:10002000000000000000000000000000FB0B0008C2
:10003000070C000800000000130C00081F0C00084B
:10004000810C0008810C0008810C0008810C00085C
:10005000810C0008810C0008810C0008810C00084C
:10006000810C0008810C0008810C0008810C00083C
:10007000810C0008810C0008810C0008810C00082C
:10008000810C0008810C0008810C0008810C00081C
:10009000810C0008810C0008810C0008810C00080C
:1000A000810C0008810C0008810C0008810C0008FC
:1000B000810C0008810C000800000000810C000881
:1000C000810C00080000000000000000810C000806
:1000D00000000000810C0008810C000800000000F6
:1000E000810C0008810C0008810C00080000000051
:1000F0000000000000000000000000000000000000
:0C01000000000000000000005FF808F1A3
:10010C0010B5054C237833B9044B13B10448AFF345
:10011C0000800123237010BD0C00002000000000A3
:10012C00A81A000808B5034B1BB103490348AFF3E9
:10013C00008008BD0000000010000020A81A000874
:10014C0080B582B000AF7860C7F800C07B68092B1F
:10015C0000F2808101A252F823F000BF9101000847
:10016C00D90100082102000869020008B102000848
:10017C00F90200084103000889030008D1030008B4
:10018C001904000800220121C64801F05BF8002286
:10019C000221C44801F056F800220421C14801F0A4
:1001AC0051F800220821BF4801F04CF80022102120
:1001BC00BC4801F047F800222021BA4801F042F86F
:1001CC0001224021B74801F03DF866E101220121EE
:1001DC00B44801F037F800220221B24801F032F89D
:1001EC0000220421AF4801F02DF801220821AD486E
:1001FC0001F028F801221021AA4801F023F801226D
:10020C002021A84801F01EF801224021A54801F048
:10021C0019F842E100220121A24801F013F8002252
:10022C000221A04801F00EF8012204219D4801F0A2
:10023C0009F8002208219B4801F004F80022102143
:10024C00984800F0FFFF01222021964800F0FAFFA9
:10025C0000224021934800F0F5FF1EE1002201210D
:10026C00904800F0EFFF002202218E4800F0EAFFD8
:10027C00002204218B4800F0E5FF00220821894868
:10028C0000F0E0FF01221021864800F0DBFF012284
:10029C002021844800F0D6FF00224021814800F044
:1002AC00D1FFFAE0012201217E4800F0CBFF0022B1
:1002BC0002217C4800F0C6FF00220421794800F09E
:1002CC00C1FF01220821774800F0BCFF0122102158
:1002DC00744800F0B7FF00222021724800F0B2FFF2
:1002EC00002240216F4800F0ADFFD6E00022012132
:1002FC006C4800F0A7FF012202216A4800F0A2FF1F
:10030C0000220421674800F09DFF00220821654867
:10031C0000F098FF01221021624800F093FF0022A8
:10032C002021604800F08EFF002240215D4800F043
:10033C0089FFB2E0002201215A4800F083FF01221C
:10034C000221584800F07EFF00220421554800F09D
:10035C0079FF00220821534800F074FF002210217D
:10036C00504800F06FFF002220214E4800F06AFF39
:10037C00002240214B4800F065FF8EE00022012155
:10038C00484800F05FFF00220221464800F05AFF67
:10039C0000220421434800F055FF01220821414866
:1003AC0000F050FF012210213E4800F04BFF0122CB
:1003BC0020213C4800F046FF01224021394800F042
:1003CC0041FF6AE000220121364800F03BFF002289
:1003DC000221344800F036FF00220421314800F09D
:1003EC0031FF002208212F4800F02CFF00221021A1
:1003FC002C4800F027FF002220212A4800F022FF81
:10040C0000224021274800F01DFF46E00022012178
:10041C00244800F017FF00220221224800F012FFAE
:10042C00002204211F4800F00DFF002208211D4866
:10043C0000F008FF012210211A4800F003FF0022EF
:10044C002021184800F0FEFE00224021154800F043
:10045C00F9FE22E001220121124800F0F3FE0122F4
:10046C000221104800F0EEFE012204210D4800F09C
:10047C00E9FE012208210B4800F0E4FE01221021C4
:10048C00084800F0DFFE01222021064800F0DAFEC9
:10049C0000224021034800F0D5FE00BF1846083763
:1004AC00BD4680BD000C014080B586B000AF07F1A1
:1004BC0020033B6000F0E0FB00F0B4FA00F0EEFA31
:1004CC0001237B6101233B610023FB600023BB60A4
:1004DC0004237B6000222021554800F0B3FE00224B
:1004EC008021534800F0AEFE00224021504800F01D
:1004FC00A9FE00224FF480714D4800F0A3FE0022AB
:10050C004FF480614A4800F09DFE00224FF40071C8
:10051C00474800F097FE7B69013B7B617B68013BA0
:10052C007B60BB68012B10D17B69022B0DD10022A3
:10053C004FF480613E4800F085FE01224FF40071BB
:10054C003B4800F07FFE02237B603B69012B21D1ED
:10055C007B69002B1ED100224021354800F072FE31
:10056C0001222021324800F06DFE00224FF48071F0
:10057C002F4800F067FE01224FF480612C4800F0F8
:10058C0061FE05237B6103237B6000233B61012318
:10059C00BB603AE0BB68012B21D17B69002B1ED1DB
:1005AC0000222021224800F04DFE0122802120480B
:1005BC0000F048FE00224FF400711D4800F042FE8E
:1005CC0001224FF480711A4800F03CFE03237B613A
:1005DC0005237B600023BB600123FB6015E0FB68F7
:1005EC00012B12D17B69002B0FD1002280211048E6
:1005FC0000F028FE012240210D4800F023FE0223CA
:10060C007B610023FB6001233B617B69013B3A4624
:10061C0094461846FFF794FD7B68013B3A46944696
:10062C00184600F007F84FF47A7000F087FB72E779
:10063C000008014080B582B000AF7860C7F800C0F8
:10064C007B68092B00F2BE8101A252F823F000BF97
:10065C0085060008D90600082D0700088107000848
:10066C00D5070008290800087D080008D1080008F3
:10067C00250900087909000800228021D04800F0E3
:10068C00E1FD00224FF48071CD4800F0DBFD00222B
:10069C004FF40071CA4800F0D5FD00224FF4806180
:1006AC00C74800F0CFFD00224FF40061C44800F0B1
:1006BC00C9FD00224FF48051C14800F0C3FD012256
:1006CC004FF40051BE4800F0BDFDA4E10122802191
:1006DC00BB4800F0B7FD00224FF48071B84800F021
:1006EC00B1FD00224FF40071B54800F0ABFD0122C2
:1006FC004FF48061B24800F0A5FD01224FF4006177
:10070C00AF4800F09FFD01224FF48051AC4800F03F
:10071C0099FD01224FF40051A94800F093FD7AE1B4
:10072C0000228021A64800F08DFD00224FF480713C
:10073C00A34800F087FD01224FF40071A04800F09F
:10074C0081FD00224FF480619D4800F07BFD00226A
:10075C004FF400619A4800F075FD01224FF480516E
:10076C00974800F06FFD00224FF40051944800F0C0
:10077C0069FD50E100228021914800F063FD0022C8
:10078C004FF480718E4800F05DFD00224FF4007133
:10079C008B4800F057FD00224FF48061884800F030
:1007AC0051FD01224FF40061854800F04BFD012200
:1007BC004FF48051824800F045FD00224FF4005167
:1007CC007F4800F03FFD26E1012280217C4800F0AB
:1007DC0039FD00224FF48071794800F033FD00227E
:1007EC004FF40071764800F02DFD01224FF480612A
:1007FC00734800F027FD01224FF40061704800F0AF
:10080C0021FD00224FF480516D4800F01BFD0022A9
:10081C004FF400516A4800F015FDFCE000228021E5
:10082C00674800F00FFD01224FF48071644800F01E
:10083C0009FD00224FF40071614800F003FD002215
:10084C004FF480615E4800F0FDFC01224FF4006122
:10085C005B4800F0F7FC00224FF48051584800F040
:10086C00F1FC00224FF40051554800F0EBFCD2E0B3
:10087C0000228021524800F0E5FC01224FF48071E7
:10088C004F4800F0DFFC00224FF400714C4800F0A0
:10089C00D9FC00224FF48061494800F0D3FC0022BF
:1008AC004FF40061464800F0CDFC00224FF480511B
:1008BC00434800F0C7FC00224FF40051404800F0C0
:1008CC00C1FCA8E0002280213D4800F0BBFC0022C6
:1008DC004FF480713A4800F0B5FC00224FF40071DF
:1008EC00374800F0AFFC01224FF48061344800F02F
:1008FC00A9FC01224FF40061314800F0A3FC012255
:10090C004FF480512E4800F09DFC01224FF4005111
:10091C002B4800F097FC7EE000228021284800F054
:10092C0091FC00224FF48071254800F08BFC0022D2
:10093C004FF40071224800F085FC00224FF48061D6
:10094C001F4800F07FFC00224FF400611C4800F0AF
:10095C0079FC00224FF48051194800F073FC0022FE
:10096C004FF40051164800F06DFC54E00022802139
:10097C00134800F067FC00224FF48071104800F01F
:10098C0061FC00224FF400710D4800F05BFC00226A
:10099C004FF480610A4800F055FC01224FF40061CD
:1009AC00074800F04FFC00224FF48051044800F03F
:1009BC0049FC00224FF40051014800F043FC2AE0AE
:1009CC00000C014001228021154800F03BFC012263
:1009DC004FF48071124800F035FC01224FF4007185
:1009EC000F4800F02FFC01224FF480610C4800F0FE
:1009FC0029FC01224FF40061094800F023FC01227C
:100A0C004FF48051064800F01DFC00224FF40051B9
:100A1C00034800F017FC00BF18460837BD4680BDE0
:100A2C00000C014080B590B000AF07F118032822EC
:100A3C000021184601F02AF83B1D00221A605A606A
:100A4C009A60DA601A610223BB610123BB62102336
:100A5C00FB6200237B6307F11803184600F00AFCC5
:100A6C000346002B01D000F08BF80F237B60002392
:100A7C00BB600023FB6000233B6100237B613B1DBB
:100A8C000021184600F078FE0346002B01D000F040
:100A9C0077F800BF4037BD4680BD000080B588B0F8
:100AAC0000AF07F1100300221A605A609A60DA60F6
:100ABC002F4B9B692E4A43F0100393612C4B9B697F
:100ACC0003F01003FB60FB68294B9B69284A43F039
:100ADC0004039361264B9B6903F00403BB60BB6862
:100AEC00234B9B69224A43F008039361204B9B697B
:100AFC0003F008037B607B6800224FF4FC611D4807
:100B0C0000F0A0FB002243F6FF711B4800F09AFB9B
:100B1C004FF400533B6100237B610123BB6107F160
:100B2C0010031946154800F011FA4FF4FC633B61B1
:100B3C0001237B610023BB610223FB6107F11003DE
:100B4C0019460C4800F002FA43F6FF733B6101238F
:100B5C007B610023BB610223FB6107F11003194683
:100B6C00054800F0F3F900BF2037BD4680BD00BF3B
:100B7C000010024000080140000C01400010014030
:100B8C0080B400AF72B600BFFEE7000080B483B043
:100B9C0000AF0E4B9B690D4A43F0010393610B4B65
:100BAC009B6903F001037B607B68084BDB69074A98
:100BBC0043F08053D361054BDB6903F080533B60FA
:100BCC003B6800BF0C37BD4680BC7047001002402C
:100BDC0080B400AFFEE780B400AFFEE780B400AF96
:100BEC00FEE780B400AFFEE780B400AFFEE780B450
:100BFC0000AF00BFBD4680BC704780B400AF00BFE3
:100C0C00BD4680BC704780B400AF00BFBD4680BC01
:100C1C00704780B500AF00F075F800BF80BD80B4A0
:100C2C0000AF00BFBD4680BC704700000C480D49AA
:100C3C000D4A002302E0D458C4500433C4188C422B
:100C4C00F9D30A4A0A4C002301E013600432A24291
:100C5C00FBD3FFF7E4FF00F0F5FEFFF725FC704730
:100C6C00000000200C000020E81A00080C000020F6
:100C7C002C000020FEE7000080B500AF084B1B687D
:100C8C00074A43F010031360032000F02BF90F20E8
:100C9C0000F008F8FFF77AFF0023184680BD00BF6C
:100CAC000020024080B582B000AF7860124B1A6809
:100CBC00124B1B7819464FF47A73B3FBF1F3B2FB6A
:100CCC00F3F3184600F035F90346002B01D001234D
:100CDC000EE07B680F2B0AD8002279684FF0FF30AA
:100CEC0000F00BF9064A7B681360002300E0012337
:100CFC0018460837BD4680BD0000002008000020C3
:100D0C000400002080B400AF054B1B781A46054B3D
:100D1C001B681344034A136000BFBD4680BC704778
:100D2C00080000202800002080B400AF024B1B6894
:100D3C001846BD4680BC70472800002080B584B0A2
:100D4C0000AF7860FFF7F0FFB8607B68FB60FB6872
:100D5C00B3F1FF3F05D00A4B1B781A46FB681344CE
:100D6C00FB6000BFFFF7E0FF0246BB68D31AFA68CE
:100D7C009A42F7D800BF00BF1037BD4680BD00BFF8
:100D8C000800002080B485B000AF78607B6803F069
:100D9C000703FB600C4BDB68BB60BA684FF6FF03C4
:100DAC001340BB60FB681A02BB68134343F0BF637C
:100DBC0043F40033BB60044ABB68D36000BF1437F4
:100DCC00BD4680BC704700BF00ED00E080B400AFB2
:100DDC00044BDB681B0A03F007031846BD4680BCB6
:100DEC00704700BF00ED00E080B483B000AF034655
:100DFC003960FB7197F90730002B0ADB3B68DAB2DC
:100E0C000C4997F907301201D2B20B4483F8002336
:100E1C000AE03B68DAB20849FB7903F00F03043BA4
:100E2C001201D2B20B441A7600BF0C37BD4680BCFF
:100E3C00704700BF00E100E000ED00E080B489B035
:100E4C0000AFF860B9607A60FB6803F00703FB61E0
:100E5C00FB69C3F10703042B28BF0423BB61FB69A7
:100E6C000433062B02D9FB69033B00E000237B61B2
:100E7C004FF0FF32BB6902FA03F3DA43BB681A4046
:100E8C007B699A404FF0FF317B6901FA03F3D94338
:100E9C007B680B40134318462437BD4680BC704713
:100EAC0080B582B000AF78607B68013BB3F1807F86
:100EBC0001D301230FE00A4A7B68013B53600F21E9
:100ECC004FF0FF30FFF790FF054B00229A60044B68
:100EDC0007221A60002318460837BD4680BD00BFA4
:100EEC0010E000E080B582B000AF78607868FFF762
:100EFC0049FF00BF0837BD4680BD80B586B000AF46
:100F0C000346B9607A60FB7300237B61FFF75EFFD9
:100F1C0078617A68B9687869FFF790FF024697F9AB
:100F2C000F3011461846FFF75FFF00BF1837BD465C
:100F3C0080BD80B582B000AF78607868FFF7B0FFF5
:100F4C00034618460837BD4680BD000080B48BB000
:100F5C0000AF7860396000237B6200233B6261E163
:100F6C0001227B6A02FA03F3FB613B681B68FA6996
:100F7C001340BB61BA69FB699A4240F050813B68EF
:100F8C005B68974A93425ED0954A934275D8954ACE
:100F9C00934258D0934A93426FD8934A934252D07B
:100FAC00914A934269D8914A93424CD08F4A9342CA
:100FBC0063D88F4A934246D08D4A93425DD8122B08
:100FCC002AD8122B59D801A252F823F0531000083A
:100FDC002D1000083F100008811000088710000831
:100FEC008710000887100008871000088710000879
:100FFC008710000887100008871000088710000869
:10100C008710000887100008871000088710000858
:10101C003510000849100008764A934213D02CE092
:10102C003B68DB683B6229E03B68DB6804333B626E
:10103C0024E03B68DB6808333B621FE03B68DB68FD
:10104C000C333B621AE03B689B68002B02D10423F3
:10105C003B6213E03B689B68012B05D108233B6284
:10106C007B68FA691A6109E008233B627B68FA69BC
:10107C005A6103E000233B6200E000BFBB69FF2B19
:10108C0001D87B6801E07B6804337B61BB69FF2B73
:10109C0002D87B6A9B0002E07B6A083B9B003B61A9
:1010AC007B691A680F213B6901FA03F3DB431A4091
:1010BC00396A3B6901FA03F31A437B691A603B688E
:1010CC005B6803F08053002B00F0A9804A4B9B69AE
:1010DC00494A43F001039361474B9B6903F00103B9
:1010EC00BB60BB68454A7B6A9B08023352F82330CD
:1010FC00FB607B6A03F003039B000F2202FA03F3ED
:10110C00DB43FA681340FB607B683D4A93420DD089
:10111C007B683C4A934207D07B683B4A934201D19F
:10112C00022304E0032302E0012300E000237A6A97
:10113C0002F0030292009340FA681343FB602F49BC
:10114C007B6A9B080233FA6841F823203B685B6892
:10115C0003F48033002B06D02C4B1A682B49BB6947
:10116C0013430B6006E0294B1A68BB69DB43274924
:10117C0013400B603B685B6803F40033002B06D014
:10118C00224B5A682149BB6913434B6006E01F4B45
:10119C005A68BB69DB431D4913404B603B685B6875
:1011AC0003F48013002B06D0184B9A681749BB69BF
:1011BC0013438B6006E0154B9A68BB69DB431349FC
:1011CC0013408B603B685B6803F40013002B1FD04B
:1011DC000E4BDA680D49BB691343CB601FE000BFAF
:1011EC00000032100000311000002210000021100D
:1011FC00000012100000111000100240000001400D
:10120C0000080140000C01400010014000040140A6
:10121C000B4BDA68BB69DB4309491340CB607B6A33
:10122C0001337B623B681A687B6A22FA03F3002B5A
:10123C007FF496AE00BF00BF2C37BD4680BC704714
:10124C000004014080B483B000AF78600B467B8013
:10125C0013467B707B78002B03D07A887B681A61ED
:10126C0003E07B881A047B681A6100BF0C37BD460B
:10127C0080BC704780B586B000AF78607B68002B6F
:10128C0001D1012372E27B681B6803F00103002B80
:10129C0000F08780924B5B6803F00C03042B0CD09E
:1012AC008F4B5B6803F00C03082B12D18C4B5B68E3
:1012BC0003F48033B3F5803F0BD1894B1B6803F4E7
:1012CC000033002B6CD07B685B68002B68D101234A
:1012DC004CE27B685B68B3F5803F06D1804B1B68A2
:1012EC007F4A43F4803313602EE07B685B68002BED
:1012FC000CD17B4B1B687A4A23F480331360784BF8
:10130C001B68774A23F4802313601DE07B685B68BD
:10131C00B3F5A02F0CD1724B1B68714A43F4802398
:10132C0013606F4B1B686E4A43F4803313600BE001
:10133C006B4B1B686A4A23F480331360684B1B6841
:10134C00674A23F4802313607B685B68002B13D0FF
:10135C00FFF7EAFC386108E0FFF7E6FC02463B6960
:10136C00D31A642B01D9032300E25D4B1B6803F4F1
:10137C000033002BF0D014E0FFF7D6FC386108E006
:10138C00FFF7D2FC02463B69D31A642B01D9032325
:10139C00ECE1534B1B6803F40033002BF0D100E05D
:1013AC0000BF7B681B6803F00203002B63D04C4B1F
:1013BC005B6803F00C03002B0BD0494B5B6803F00C
:1013CC000C03082B1CD1464B5B6803F48033002BB9
:1013DC0016D1434B1B6803F00203002B05D07B682E
:1013EC001B69012B01D00123C0E13D4B1B6823F08D
:1013FC00F8027B685B69DB00394913430B603AE008
:10140C007B681B69002B20D0364B01221A60FFF73A
:10141C008BFC386108E0FFF787FC02463B69D31A66
:10142C00022B01D90323A1E12D4B1B6803F002030E
:10143C00002BF0D02A4B1B6823F0F8027B685B6909
:10144C00DB00274913430B6015E0264B00221A6082
:10145C00FFF76AFC386108E0FFF766FC02463B695F
:10146C00D31A022B01D9032380E11D4B1B6803F017
:10147C000203002BF0D17B681B6803F00803002BE0
:10148C003AD07B689B69002B19D0174B01221A604C
:10149C00FFF74AFC386108E0FFF746FC02463B695F
:1014AC00D31A022B01D9032360E10D4B5B6A03F0C5
:1014BC000203002BF0D0012000F0A6FA1CE00A4B2E
:1014CC0000221A60FFF730FC38610FE0FFF72CFCAC
:1014DC0002463B69D31A022B08D9032346E100BF0D
:1014EC00001002400000424280044242924B5B6A70
:1014FC0003F00203002BE9D17B681B6803F00403A3
:10150C00002B00F0A6800023FB758B4BDB6903F0EE
:10151C008053002B0DD1884BDB69874A43F08053F5
:10152C00D361854BDB6903F08053BB60BB6801233F
:10153C00FB75824B1B6803F48073002B18D17F4B17
:10154C001B687E4A43F480731360FFF7EDFB386130
:10155C0008E0FFF7E9FB02463B69D31A642B01D97B
:10156C00032303E1754B1B6803F48073002BF0D04D
:10157C007B68DB68012B06D16F4B1B6A6E4A43F00C
:10158C00010313622DE07B68DB68002B0CD16A4BE6
:10159C001B6A694A23F001031362674B1B6A664A94
:1015AC0023F0040313621CE07B68DB68052B0CD171
:1015BC00614B1B6A604A43F0040313625E4B1B6A67
:1015CC005D4A43F0010313620BE05B4B1B6A5A4A02
:1015DC0023F001031362584B1B6A574A23F0040390
:1015EC0013627B68DB68002B15D0FFF79DFB38611D
:1015FC000AE0FFF799FB02463B69D31A41F28832A5
:10160C00934201D90323B1E04B4B1B6A03F0020355
:10161C00002BEED014E0FFF787FB38610AE0FFF7F0
:10162C0083FB02463B69D31A41F28832934201D9BB
:10163C0003239BE0404B1B6A03F00203002BEED10B
:10164C00FB7D012B05D13C4BDB693B4A23F08053DE
:10165C00D3617B68DB69002B00F08780364B5B68BD
:10166C0003F00C03082B61D07B68DB69022B46D19D
:10167C00334B00221A60FFF757FB386108E0FFF785
:10168C0053FB02463B69D31A022B01D903236DE0AD
:10169C00294B1B6803F00073002BF0D17B681B6A8D
:1016AC00B3F5803F08D1244B5B6823F400327B6890
:1016BC009B68214913434B601F4B5B6823F47412E6
:1016CC007B68196A7B685B6A0B431B4913434B604D
:1016DC001B4B01221A60FFF727FB386108E0FFF76C
:1016EC0023FB02463B69D31A022B01D903233DE0AD
:1016FC00114B1B6803F00073002BF0D035E0104B3E
:10170C0000221A60FFF710FB386108E0FFF70CFBB2
:10171C0002463B69D31A022B01D9032326E0064B60
:10172C001B6803F00073002BF0D11EE07B68DB69B3
:10173C00012B07D1012319E000100240007000407A
:10174C00600042420B4B5B68FB60FB6803F4803229
:10175C007B681B6A9A4206D1FB6803F470127B68A3
:10176C005B6A9A4201D0012300E000231846183727
:10177C00BD4680BD0010024080B584B000AF7860DB
:10178C0039607B68002B01D10123D0E06A4B1B68C8
:10179C0003F007033A689A4210D9674B1B6823F091
:1017AC00070265493B6813430B60634B1B6803F0EE
:1017BC0007033A689A4201D00123B8E07B681B68A2
:1017CC0003F00203002B20D07B681B6803F004039A
:1017DC00002B05D0594B5B68584A43F4E0635360C7
:1017EC007B681B6803F00803002B05D0534B5B6828
:1017FC00524A43F460535360504B5B6823F0F00241
:10180C007B689B684D4913434B607B681B6803F0F6
:10181C000103002B40D07B685B68012B07D1474B41
:10182C001B6803F40033002B15D101237FE07B6888
:10183C005B68022B07D1414B1B6803F00073002B34
:10184C0009D1012373E03D4B1B6803F00203002B0D
:10185C0001D101236BE0394B5B6823F003027B68F9
:10186C005B68364913434B60FFF75EFAF8600AE099
:10187C00FFF75AFA0246FB68D31A41F288329342B8
:10188C0001D9032353E02D4B5B6803F00C027B68FA
:10189C005B689B009A42EBD1274B1B6803F0070354
:1018AC003A689A4210D2244B1B6823F00702224953
:1018BC003B6813430B60204B1B6803F007033A682B
:1018CC009A4201D0012332E07B681B6803F00403C9
:1018DC00002B08D0194B5B6823F4E0627B68DB6853
:1018EC00164913434B607B681B6803F00803002BFD
:1018FC0009D0124B5B6823F460527B681B69DB00D8
:10190C000E4913434B6000F021F802460B4B5B6809
:10191C001B0903F00F030A49CB5C22FA03F3094AB3
:10192C001360094B1B681846FFF7BCF900231846D7
:10193C001037BD4680BD00BF0020024000100240A1
:10194C00D01A0008000000200400002090B48AB0D7
:10195C0000AF294B3C1D0FCB84E80F0040F2012354
:10196C003B800023FB610023BB6100237B620023CF
:10197C007B6100233B62214B5B68FB61FB6903F0DD
:10198C000C03042B02D0082B03D02BE01C4B3B6226
:10199C002BE0FB699B0C03F00F0328333B4413F83B
:1019AC00243C7B61FB6903F48033002B12D0134B76
:1019BC005B685B0C03F0010328333B4413F8283CB1
:1019CC00BB617B690E4A03FB02F2BB69B2FBF3F30A
:1019DC007B6204E07B690B4A02FB03F37B627B6A4C
:1019EC003B6202E0064B3B6200BF3B6A184628375D
:1019FC00BD4690BC704700BFC01A000800100240E2
:101A0C0000127A0000093D0080B485B000AF786008
:101A1C000A4B1B680A4AA2FB03235B0A7A6802FB87
:101A2C0003F3FB6000BFFB685A1EFA60002BF9D170
:101A3C0000BF00BF1437BD4680BC704700000020BB
:101A4C00D34D621070B500260C4D0D4C641BA410C8
:101A5C00A64209D100F022F800260A4D0A4C641B5C
:101A6C00A410A64205D170BD55F8043B9847013629
:101A7C00EEE755F8043B98470136F2E7E01A000808
:101A8C00E01A0008E01A0008E41A000803460244B1
:101A9C00934200D1704703F8011BF9E7F8B500BF7A
:101AAC00F8BC08BC9E467047F8B500BFF8BC08BC33
:041ABC009E4670478B
:101AC00002030405060708090A0B0C0D0E0F10107F
:101AD00000000000000000000102030406070809DE
:041AE00031010008C8
:041AE4000D010008E8
:0C1AE8000024F4001000000001000000C9
:0400000508000C39AA
:00000001FF
